:100000000C942A000C9488010C9447000C9447002F
:100010000C9447000C9447000C9447000C94470044
:100020000C9447000C9447000C9447000C94470034
:100030000C9447000C945C010C9447000C9447000E
:100040000C9445010C9447000C9447000C94470015
:100050000C94470011241FBECFE5D8E0DEBFCDBF12
:1000600010E0A0E6B0E0E4E6F3E002C005900D92F7
:10007000AC3AB107D9F720E0ACEAB0E001C01D927C
:10008000A23BB207E1F70E94E4000C94B0010C948B
:1000900000001ABA1BBA8FEF87BB84BB11BA82BBB0
:1000A000089510BC84E389B988E98AB908951ABA19
:1000B0001BBA80E287B98CEC86B908958EE085BFC3
:1000C00080EC8BBF08952091AE003091AF002130BD
:1000D000310531F12230310579F1232BF1F52091F1
:1000E0006200309163002817390734F421E030E0D2
:1000F0003093AF002093AE002091600030916100FA
:100100004091640050916500241B350B82179307C2
:1001100024F582E090E09093AF008093AE001DC084
:10012000209162003091630082179307B4F410921B
:10013000AF001092AE0011C02091600030916100BC
:100140004091640050916500241B350B2817390736
:1001500024F41092AF001092AE008091AE00909106
:10016000AF00089581B3806881BB85B5886485BD83
:1001700085B5806285BD85B5826085BD0895AC0179
:1001800090E004C05D9BFECF2CB99F5FFA01E90FA0
:10019000F11D20812111F6CF5D9BFECF8AE08CB945
:1001A000089586E690E00E94BF0082E085BB88BB90
:1001B0002FE38DE093E0215080409040E1F700C0B4
:1001C000000015BA18BA089578940E9449000E9458
:1001D00051000E9457000E945E000E94B2002FEB67
:1001E00087E299E0215080409040E1F700C0000094
:1001F0001092AD001092AC008091AC009091AD00D7
:1002000083BD8FEF88BB8091AC009091AD00880FCB
:1002100083BDC091AE00D091AF008091B0009091AD
:10022000B1000E9463009093AF008093AE00809174
:10023000AE009091AF00C817D90729F38091AE00A6
:100240009091AF000E94D1008091AE009091AF00DC
:10025000892B29F480E790E00E94BF00D4CF8091E1
:10026000AE009091AF00029729F489E790E00E94D8
:10027000BF00C9CF8091AE009091AF00019719F6F1
:100280008FE790E00E94BF00BECF1F920F920FB683
:100290000F9211248F939F9385B190E09093B100BA
:1002A0008093B00086B1806486B99F918F910F9042
:1002B0000FBE0F901F9018951F920F920FB60F92BE
:1002C00011242F933F934F935F936F937F938F935B
:1002D0009F93AF93BF93EF93FF938CB190E0909374
:1002E000AD008093AC0085E990E00E94BF00FF91D3
:1002F000EF91BF91AF919F918F917F916F915F919E
:100300004F913F912F910F900FBE0F901F90189516
:100310001F920F920FB60F9211242F933F934F937A
:100320005F936F937F938F939F93AF93BF93EF935D
:10033000FF9382EA90E00E94BF000E94D100FF91EB
:10034000EF91BF91AF919F918F917F916F915F914D
:100350004F913F912F910F900FBE0F901F901895C6
:04036000F894FFCF3F
:100364006400C3000500425245454545454D5300D0
:100374005374726169676874005269676874004CE9
:100384006566740047796C6669204B61726C73739F
:100394006F6E200A00726563696576656420505744
:0C03A4004D006D61616C73747265670040
:00000001FF
