:100000000C942A000C9447000C9447000C94470071
:100010000C9447000C9447000C9447000C94470044
:100020000C9447000C9447000C9447000C94470034
:100030000C9447000C949F010C9418020C944700F8
:100040000C9447000C9447000C9447000C94470014
:100050000C94470011241FBECFE5D8E0DEBFCDBF12
:1000600010E0A0E6B0E0E0EDFCE002C005900D92EB
:10007000A63FB107D9F722E0A6EFB0E001C01D927C
:10008000A333B207E1F70E9417010C9466060C94A3
:10009000000081B3806881BB85B5886485BD85B566
:1000A000806285BD85B5826085BD0895877087B9FA
:1000B00084ED86B908958091F6009091F700823022
:1000C000910549F12CF4009751F0019791F00895B2
:1000D0008330910591F1049709F441C0089580E0BF
:1000E0000E94560081E090E09093F7008093F60024
:1000F0000895349B8AC084B195B19093CA018093CE
:10010000C90182E00E94560082E090E09093F700DF
:100110008093F6000895349B78C084B195B1909394
:100120002A018093290183E00E94560083E090E039
:100130009093F7008093F6000895349B66C084B1D5
:1001400095B1909332028093310280E00E94560074
:1001500084E090E09093F7008093F60008958091FA
:100160002B0190912C01892B09F04FC08091C9017E
:100170009091CA0199230CF40396959587959595CE
:1001800087959F938F938091290190912A019923BC
:100190000CF4039695958795959587959F938F93E6
:1001A000809131029091320299230CF40396959537
:1001B0008795959587959F938F9381E690E09F9380
:1001C0008F938DEC91E09F938F930E947C0380919D
:1001D00060002DB73EB7265F3F4F0FB6F8943EBF85
:1001E0000FBE2DBF882331F067E18DEC91E00E94B6
:1001F0007D0205C06DE08DEC91E00E947D0281E002
:1002000090E09093F7008093F600089581B38B7B84
:1002100081BB14BA8FEF85BB87BB88BB1ABA80E25B
:1002200087B980B78F7180BF84EE86B908950E9428
:1002300049000E94060160E875E280E090E00E94BB
:10024000F002789467E18DE690E00E947D0267E11C
:100250008CEC90E00E947D02C0E0D0E00E94DD01C5
:100260008A3729F0843629F0823631F404C0D1E08F
:1002700003C0D3E001C0D4E0D23041F118F4D13052
:1002800039F0ECCFD33041F1D43009F441C0E6CF9E
:1002900067E184E990E00E947D02D1E013C00E94F2
:1002A000F401C82F0E94A702182FC23058F067E14E
:1002B00086EA90E00E947D0267E1812F90E00E9433
:1002C0007D02D0E0D13059F3D2E0C8CF89E1C89F98
:1002D000802D112483BDC2CF67E181EB90E00E94A5
:1002E0007D0267E183EC90E00E947D020E945B004A
:1002F00080912B0190912C01039728F467E18DECFC
:1003000090E00E947D020E94DD01843679F7A6CF3D
:1003100067E18AEE90E00E947D0281E088BB2FE7D2
:1003200088E391E0215080409040E1F700C0000058
:1003300018BA67E180EF90E00E947D028FCF1F9294
:100340000F920FB60F9211242F933F934F938F93D9
:100350009F93EF93FF9380E090E00CC09C012F5F90
:100360003F4FF901E25EFE4F4081FC01E25EFE4F2D
:100370004083C901883091058CF38CB180932501AD
:100380008D3019F481E0809327018091C70190910D
:10039000C801883091052CF401969093C801809390
:1003A000C701FF91EF919F918F914F913F912F91B5
:1003B0000F900FBE0F901F9018958091C7019091DC
:1003C000C801009779F09C01215031093093C80190
:1003D0002093C701E8E0F0E0E81BF90BE25EFE4F76
:1003E0008081089580E0089587E090E001C0019742
:1003F000FC01E25EFE4F208130ED320F3A3020F0FA
:100400002D3211F02D3019F41816190684F32093AB
:100410002801815E9E4F0E9456039093CC018093E9
:10042000CB01109227011092C8011092C7010895C4
:100430001F920F920FB60F9211242F933F938F9319
:100440009F93EF93FF9380912B0190912C01009744
:10045000C1F0EBE2F1E00197918380838481958183
:100460009C012F5F3F4F35832483FC01E55DFE4FE8
:1004700086818CB92639310520F010923001109216
:100480002F0180912B0190912C01892B19F48AB1B5
:100490008F7D8AB9FF91EF919F918F913F912F911D
:1004A0000F900FBE0F901F90189520912B01309147
:1004B0002C0126393105C9F39AB19F7D9AB9EBE237
:1004C000F1E0208131812F5F3F4F318320832281F2
:1004D0003381A9014F5F5F4F53834283F901E55D8B
:1004E000FE4F86834639510520F010922E0110925E
:1004F0002D018AB180628AB908950F931F93CF931B
:10050000DF938C01D62FC0E003C0CF5F0E9455025D
:10051000F801EC0FF11D80818111F7CFDD3021F45E
:100520008DE00E9455020EC0DA3021F48AE00E946C
:10053000550208C0D73131F48DE00E9455028AE09F
:100540000E945502DF91CF911F910F910895609104
:100550001C0170911D016F5F7F4F6370772770934F
:100560001D0160931C01FB01EE0FFF1FEE0FFF1F2B
:10057000EE0FFF1FE60FF71FE850FF4F108690E0C9
:1005800021C0E7E0F0E09F01291B3109482F50E02E
:10059000092E02C0559547950A94E2F740FF02C024
:1005A00041E301C040E3FB01EE0FFF1FEE0FFF1F11
:1005B000EE0FFF1FE60FF71FE850FF4FE20FF31F8C
:1005C00040839F5F9830E8F2CB01880F991F880F16
:1005D000991F880F991F860F971F88509F4F089566
:1005E0001092C8011092C7011092270110922601A3
:1005F000EBE2F1E0118210821382128215821482E2
:1006000022E02BB928E12AB92AB128602AB92AB1F7
:1006100020692AB926E820BDDC01CB01880F991F8B
:10062000AA1FBB1F880F991FAA1FBB1F9C01AD01EA
:10063000220F331F441F551F220F331F441F551F06
:1006400060E079E08DE390E00E9434038FEF820F49
:1006500089B9DA01C9010197A109B109892F9A2F36
:10066000AB2FBB2780BD0895A1E21A2EAA1BBB1B8E
:10067000FD010DC0AA1FBB1FEE1FFF1FA217B3076E
:10068000E407F50720F0A21BB30BE40BF50B661F84
:10069000771F881F991F1A9469F760957095809548
:1006A00090959B01AC01BD01CF010895FC01882705
:1006B0009927E89421912032E9F3293010F02E3067
:1006C000C8F32B3241F02D3239F4689404C00E94F3
:1006D0007403820F911D219120532A30C0F31EF420
:1006E000909581959F4F08957AE0979F902D879FD1
:1006F000802D910D11240895AEE0B0E0E2E8F3E022
:100700000C943D060D891E8986E08C831A8309832B
:100710008FEF9FE79E838D83AE01475E5F4F6F89AA
:10072000788DCE0101960E949E03EF81F885E00F3F
:10073000F11F10822E96E4E00C945906ABE0B0E075
:10074000E4EAF3E00C942F066C017B018A01FC01C2
:1007500017821682838181FFCCC1CE0101963C01B4
:10076000F6019381F70193FD859193FF81917F01BC
:10077000882309F4BAC1853239F493FD859193FF3A
:1007800081917F01853229F4B60190E00E949505A0
:10079000E7CF912C212C312CFFE1F315D8F08B32CF
:1007A00079F038F4803279F08332A1F4232D20617E
:1007B0001DC08D3261F0803369F4232D216016C095
:1007C000832D8260382EE32DE4603E2E2AC0F32D67
:1007D000F8601DC037FC2DC020ED280F2A3040F0F6
:1007E0008E32B9F436FC81C1232D2064322E19C01B
:1007F00036FE06C08AE0989E200D1124922E11C06C
:10080000EAE02E9E200D1124222EF32DF0623F2EC1
:1008100008C08C3621F4832D8068382E02C08836BB
:1008200041F4F70193FD859193FF81917F0181113F
:10083000B3CF982F9F7D9554933028F40C5F1F4FB2
:100840009FE399830DC0833631F0833771F0833590
:1008500009F059C021C0F801808189830E5F1F4FC4
:1008600088248394912C530113C02801F2E04F0E89
:10087000511CF801A080B18036FE03C0692D70E0E4
:1008800002C06FEF7FEFC5010E948A054C01820113
:10089000F32DFF773F2E16C0280122E0420E511C97
:1008A000F801A080B18036FE03C0692D70E002C05F
:1008B0006FEF7FEFC5010E947F054C01F32DF068BB
:1008C0003F2E820133FC1BC0822D90E088169906D2
:1008D000B0F4B60180E290E00E9495052A94F4CF2E
:1008E000F50137FC859137FE81915F01B60190E0FB
:1008F0000E94950521102A9421E0821A9108811402
:10090000910471F7E8C0843611F0893641F5F80199
:1009100037FE07C060817181828193810C5F1F4F18
:1009200008C060817181072E000C880B990B0E5F47
:100930001F4FF32DFF763F2E97FF09C090958095AE
:10094000709561957F4F8F4F9F4FF0683F2E2AE043
:1009500030E0A3010E94D105882E861845C0853756
:1009600031F4232D2F7EB22E2AE030E025C0932DC6
:10097000997FB92E8F36C1F018F4883579F0B5C05B
:10098000803719F0883721F0B0C0E92FE061BE2E22
:10099000B4FE0DC0FB2DF460BF2E09C034FE0AC0AA
:1009A000292F2660B22E06C028E030E005C020E1E5
:1009B00030E002C020E132E0F801B7FE07C06081FC
:1009C0007181828193810C5F1F4F06C060817181AC
:1009D00080E090E00E5F1F4FA3010E94D105882E9A
:1009E0008618FB2DFF773F2E36FE0DC0232D2E7F60
:1009F000A22E891458F434FE0BC032FC09C0832D9A
:100A00008E7EA82E05C0B82CA32C03C0B82C01C024
:100A1000B92CA4FE0FC0FE01E80DF11D80818033CA
:100A200021F49A2D997EA92E09C0A2FE06C0B39486
:100A3000B39404C08A2D867809F0B394A3FC11C046
:100A4000A0FE06C0B21488F4280C922C9B180EC08D
:100A5000B21460F4B60180E290E00E949505B39470
:100A6000F7CFB21418F42B1802C0982C212CA4FE36
:100A700010C0B60180E390E00E949505A2FE17C069
:100A8000A1FC03C088E790E002C088E590E0B601D1
:100A90000CC08A2D867859F0A1FE02C08BE201C0FD
:100AA00080E2A7FC8DE2B60190E00E9495058914D2
:100AB00038F4B60180E390E00E9495059A94F7CF50
:100AC0008A94F301E80DF11D8081B60190E00E9447
:100AD00095058110F5CF222009F442CEB60180E2BF
:100AE00090E00E9495052A94F6CFF60186819781C1
:100AF00002C08FEF9FEF2B96E2E10C944B06FC01B6
:100B00000590615070400110D8F7809590958E0F38
:100B10009F1F0895FC016150704001900110D8F7AB
:100B2000809590958E0F9F1F08950F931F93CF93DD
:100B3000DF93FB01238121FD03C08FEF9FEF2CC0CA
:100B400022FF16C046815781248135814217530701
:100B500044F4A081B1819D012F5F3F4F31832083F9
:100B60008C93268137812F5F3F4F3783268314C0B4
:100B70008B01EC01FB010084F185E02D0995892BA7
:100B8000E1F6D80116968D919C91179701961796CC
:100B90009C938E931697CE01DF91CF911F910F9169
:100BA0000895FA01AA27283051F1203181F1E89403
:100BB0006F936E7F6E5F7F4F8F4F9F4FAF4FB1E050
:100BC0003ED0B4E03CD0670F781F891F9A1FA11D4B
:100BD000680F791F8A1F911DA11D6A0F711D811D4C
:100BE000911DA11D20D009F468943F912AE0269F11
:100BF00011243019305D3193DEF6CF010895462F70
:100C00004770405D4193B3E00FD0C9F7F6CF462F50
:100C10004F70405D4A3318F0495D31FD40524193B9
:100C200002D0A9F7EACFB4E0A69597958795779576
:100C30006795BA95C9F700976105710508959B01FD
:100C4000AC010A2E06945795479537952795BA9586
:100C5000C9F7620F731F841F951FA01D08952F925F
:100C60003F924F925F926F927F928F929F92AF923C
:100C7000BF92CF92DF92EF92FF920F931F93CF9389
:100C8000DF93CDB7DEB7CA1BDB0B0FB6F894DEBF20
:100C90000FBECDBF09942A88398848885F846E8446
:100CA0007D848C849B84AA84B984C884DF80EE8090
:100CB000FD800C811B81AA81B981CE0FD11D0FB699
:100CC000F894DEBF0FBECDBFED010895F894FFCFBD
:100CD0000125336420253364202533640054727960
:100CE0006B207368696674202B205A20666F72200F
:100CF000617420696E647461737420636F6D6D61DB
:100D00006E646F00466F726D6174202E2E2E41311D
:100D100032332E2E2E00777269746520646F6E65F3
:100D200000414443206D61616C696E67207374619A
:100D3000727400583D20593D205A3D20004275668E
:100D400066657220756E646572666C6F77202D2003
:100D5000646174612074616274004272656D730035
:060D60004B6F65720000FC
:00000001FF
